:0E00000010C0FECFFDCFFCCFFBCFFACFF9CF63
:10000E00F8CFF7CFF6CFF5CFF4CFF3CFF2CFF1CFC6
:10001E00F0CFEFCFF894EE27ECBBE5BF8DE0A2E07A
:10002E00ED938A95E9F780E8A0E6ED938A95E9F7D6
:10003E00E0E0E3BBE4BBE5BBEFEDEDBFC0E817C00E
:10004E00989899989A989B989C9833242224552492
:10005E0044247724662499248824BB24AA24DE9879
:10006E00DF98C29AA8ECB0E039D0C2980895E0E8C3
:10007E00E6BDE0E0E6BDE0ECEABBE0E0EBBBE4E0D1
:10008E00E7BBE0E0E8BBE0BFE3BFE2BFE6BFECBF2B
:10009E00EFBDEEBDEDBDECBDE5BDE4BDEBBDEABD16
:1000AE00E9BDE8BDE9BFECB9E5BFEBBFEDB9E0E8EE
:1000BE00E8B9E0E0E1B9E1B9E7B9E3E8E6B9E0E0D3
:1000CE00E3B9BEDFDF9ADE9AA8E8B3E107D0DF9886
:1000DE00DE98A8E8B3E102D0F5CFFFCF109639F045
:1000EE0080ED97E00197F1F7A8951197C9F708955C
:00000001FF
