:0200000010C02E
:10000200FECFFDCFFCCFFBCFFACFF9CFF8CFF7CFA2
:10001200F6CFF5CFF4CFF3CFF2CFF1CFF0CFEFCFD2
:10002200F894EE27ECBBE5BF8DE0A2E0ED938A9554
:10003200E9F780E8A0E6ED938A95E9F7E0E0E3BB13
:10004200E4BBE5BBEFEDEDBFC0E8A1C0AA93E88138
:10005200EF73E7B98BE18A95F1F7369A349BFECFBD
:10006200349AE4B1F5B121960895989899989A989E
:100072009B989C9833242224552444247724662474
:1000820099248824BB24AA24DE98DF98C29AA8EC7B
:10009200B0E0B1D0C2980895B8D0A1E0A6D048F09F
:1000A2003394EAE0E31520F4EBE03E2E2224989A02
:1000B20008C02394EAE0E21520F43324EBE02E2E6C
:1000C2009898A5E092D048F05394EAE0E51520F420
:1000D200EBE05E2E4424999A08C04394EAE0E415CA
:1000E20020F45524EBE04E2E9998A4E07ED048F0FF
:1000F2009394EAE0E91520F4EBE09E2E88249B9A83
:1001020008C08394EAE0E81520F49924EBE08E2EEF
:100112009B98A3E06AD048F07394EAE0E71520F4D4
:10012200EBE07E2E66249A9A08C06394EAE0E61514
:1001320020F47724EBE06E2E9A98A2E056D048F095
:10014200B394EAE0EB1520F4EBE0BE2EAA249C9ACD
:1001520008C0A394EAE0EA1520F4BB24EBE0AE2E3B
:100162009C98989906C09B9904C0999902C09A9B41
:1001720002C0DF9A01C0DF989C9B02C0DE9A01C0D8
:10018200DE98AAE0B0E037D0099119910895E0E82D
:10019200E6BDE0E0E6BDE0ECEABBE0E0EBBBE4E0BC
:1001A200E7BBE0E0E8BBE0BFE3BFE2BFE6BFECBF16
:1001B200EFBDEEBDEDBDECBDE5BDE4BDEBBDEABD01
:1001C200E9BDE8BDE9BFECB9E5BFEBBFEDB9E0E8D9
:1001D200E8B9E0E0E1B9E1B9E7B9E3E8E6B9E0E0BE
:1001E200E3B943DF59DFFECFFFCF30DF8F010B30A2
:1001F200E0E01E070895109639F080ED97E0019730
:10020200F1F7A8951197C9F708951A930A930895DB
:00000001FF
