:0600000015C0FECFFDCF8C
:10000600FCCFFBCFFACFF9CFF8CFF7CFF6CFF5CFAE
:10001600F4CFF3CFF2CFF1CFF0CFEFCF90010200C4
:100026000C0022000000F894EE27ECBBE5BF8DE043
:10003600A2E0ED938A95E9F780E8A0E6ED938A952C
:10004600E9F7E4E2F0E085919591009761F0A591DA
:10005600B59105901590BF01F00105900D9201979D
:10006600E1F7FB01F0CFE0E0E3BBE4BBE5BBEFED7E
:10007600EDBFC0E8D4C0AA93E881EF73E7B98BE17E
:100086008A95F1F7369A349BFECF349AE4B1F5B1EE
:1000960021960895989899989A989B989C983324B5
:1000A6002224552444247724662499248824BB24B6
:1000B600AA24DE9ADF98C29AA8ECB0E0E6D0C298ED
:1000C600089503D1A1E0D9D00D3BE1E01E0748F029
:1000D6003394EAE0E31520F4EBE03E2E2224989ACE
:1000E60008C02394EAE0E21520F43324EBE02E2E38
:1000F6009898A5E0C2D0013CE1E01E0748F0539471
:10010600EAE0E51520F4EBE05E2E4424999A08C057
:100116004394EAE0E41520F45524EBE04E2E99983A
:10012600A4E0ABD0013CE1E01E0748F09394EAE07E
:10013600E91520F4EBE09E2E88249B9A08C0839450
:10014600EAE0E81520F49924EBE08E2E9B98A3E0D4
:1001560094D00F3BE1E01E0748F07394EAE0E71500
:1001660020F4EBE07E2E66249A9A08C06394EAE0B7
:10017600E61520F47724EBE06E2E9A98A2E07DD067
:100186000D3CE1E01E0748F0B394E5E0EB1520F4E2
:10019600EBE0BE2EAA249C9A08C0A394E5E0EA15DB
:1001A60020F4BB24EBE0AE2E9C98989906C09B9950
:1001B60004C0999902C09A9B07C0A8EEB3E065D027
:1001C600DF9ACC24DD2407C0E4EFF1E0EC15FD0551
:1001D60011F4DF98C2989C9B07C0A8EEB3E055D0F7
:1001E600DE98CC24DD2403C04BD008F0DE9A48D03C
:1001F60078F4F60131966F01D601E8E2F0E062D0BC
:10020600309729F4C29B02C0C29801C0C29A01C0AD
:10021600C298AAE0B0E039D0099119910895E0E8B2
:10022600E6BDE0E0E6BDE0ECEABBE0E0EBBBE4E027
:10023600E7BBE0E0E8BBE0BFE3BFE2BFE6BFECBF81
:10024600EFBDEEBDEDBDECBDE5BDE4BDEBBDEABD6C
:10025600E9BDE8BDE9BFECB9E5BFEBBFEDB9E0E844
:10026600E8B9E0E0E1B9E1B9E7B9E3E8E6B9E0E029
:10027600E3B910DF26DFFECFFFCFFDDE8F01089545
:10028600E4EFF1E0CE16DF060895109639F080ED22
:1002960097E00197F1F7A8951197C9F708950024FB
:1002A600112490E1AA0FBB1F001C111C0E1A1F0A75
:1002B60018F40E0E1F1E01C0A1609A9599F7FD0154
:1002C600D0010895ECDFFD0108951A930A9308956D
:00000001FF
